:100000000C9434000C943E000C943E000C943E0082
:100010000C943E000C943E000C943E000C943E0068
:100020000C943E000C943E000C943E000C943E0058
:100030000C943E000C943E000C943E000C943E0048
:100040000C943E000C943E000C943E000C943E0038
:100050000C943E000C943E000C943E000C943E0028
:100060000C943E000C943E0011241FBECFEFD8E04C
:10007000DEBFCDBF0E9440000C9473000C940000C2
:1000800082E084B91AB88CE08BB94B9916C082E033
:1000900085B92FEF81EE94E0215080409040E1F748
:1000A00000C0000015B82FEF81EE94E02150804091
:1000B0009040E1F700C00000E8CF82E085B92FEF63
:1000C00089E698E1215080409040E1F700C00000AF
:1000D00015B82FEF89E698E1215080409040E1F774
:0A00E00000C00000D2CFF894FFCF5B
:00000001FF
